:100000000C94CD000C949F090C9478090C94510920
:100010000C942A090C94F5000C94F5000C94030937
:100020000C94F5000C94F5000C9418060C948706BB
:100030000C94F5000C94F5000C94F5000C94F5006C
:100040000C94F5000C94450A0C94F5000C94F50002
:100050000C94F5000C94F5000C94F5000C94B90880
:100060000C94F5000C94F5000C94F5000C94F5003C
:100070000C94F5000C94F5000C94F5000C94F5002C
:100080000C94F5000C94F5000C94F5000C94F5001C
:100090000C94F5000C94F5000C94C6090C94F50032
:1000A0000C94F5000C94F5000C94F5000000000091
:1000B000240027002A002D00300000000002000963
:1000C0000F0000030401000C00000000000000000D
:1000D000000000000000000000080B000202020007
:1000E00000090400000102020000052400100105BF
:1000F00024010101042402060524060001070581EC
:100100000310004009040100020A00000007050274
:1001100002400000070583024000000403090412A6
:10012000010002EF02014041233780000101020378
:100130000141726475696E6F204C4C4300417264DA
:1001400075696E6F204D6963726F000408020110BB
:100150004080401020408040800802040180402000
:1001600010020110801020404020000000002500F7
:1001700028002B002E0031000404040404030405AD
:100180000202020204030202020206060606060634
:100190000404020202040400010B11241FBECFEF6D
:1001A000DAE0DEBFCDBF11E0A0E0B1E0E4E0FDE1C8
:1001B00002C005900D92AA33B107D9F722E0AAE355
:1001C000B1E001C01D92AB3CB207E1F710E0CDEC0D
:1001D000D0E004C02197FE010E947A0ECC3CD107EA
:1001E000C9F70E94380B0C94800E0C940000E82F85
:1001F000F0E0EE0FFF1FEA5EFE4F718360838230F6
:10020000D9F028F4882341F0813071F008958330CB
:10021000D9F0843009F10895809169008C7F816064
:1002200080936900E89A089580916900837F8460D3
:1002300080936900E99A0895809169008F7C8061BC
:1002400080936900EA9A0895809169008F738064B1
:1002500080936900EB9A089580916A008F7C806199
:1002600080936A00EE9A08958F929F92AF92BF9208
:10027000FF920F931F93CF93DF93F090C8022BE070
:100280002F1508F44CC02091CA0208E512E0021BA9
:10029000110927FD1395000F111F000F111F209149
:1002A000C902C8E8D0E0C21BD10927FDD395CC0F05
:1002B000DD1FCC0FDD1F4E010D2E000CAA08BB0860
:1002C0009801012E000C440B550B281939094A09D5
:1002D0005B09DC010E94350E24EB30E040E050E089
:1002E0000E940B0E820E931EA41EB51E8C169D0638
:1002F0002CF0E801801691060CF4E4012297CC0F53
:10030000DD1F2FB7F8948F2D90E0FC01EE0FFF1F3B
:10031000E80FF91FED55FD4FD283C1832FBFDF9149
:10032000CF911F910F91FF90BF90AF909F908F90B2
:100330000895FC0180919101882311F13FB7F89451
:1003400082E08093E9002091F200822F90E018165D
:10035000190614F481E090E0882339F0289A44E6E5
:10036000409390014091F1004083222339F0209185
:10037000F200211103C02BE62093E8003FBF08954F
:100380008FEF9FEF08952FB7F89483E08093E900F3
:100390009091E800892F807295FF04C09091F2003F
:1003A00080E4891B2FBF08958091880181110DC0C1
:1003B00082E08093840184E080938501109287011C
:1003C0001092860181E08093880184E891E008958D
:1003D000CF93DF931F92CDB7DEB76983DC01ED9138
:1003E000FC910280F381E02D41E050E0BE016F5F9F
:1003F0007F4F09950F90DF91CF91089583E080930F
:10040000E9008091F200882319F08AE38093E800E4
:1004100008950E94C30190E00895CF93DF931F9247
:10042000CDB7DEB7FC018485958597FD08C02FEF19
:100430003FEF358724870F90DF91CF910895CE014C
:1004400001960E949901019719F4898190E0F3CFF8
:100450008FEF9FEFF0CF0F931F93CF93DF931F92F8
:10046000CDB7DEB78C01FC018485958597FF0BC065
:10047000CE0101960E949901019771F4898190E063
:10048000F80195878487F801848595850F90DF9121
:10049000CF911F910F9108958FEF9FEFF1CFFC0146
:1004A0008485958597FD0BC09FB7F89482E0809373
:1004B000E9008091F2009FBF90E0019608959FB7F8
:1004C000F89482E08093E9008091F2009FBF90E071
:1004D000089540917E0150917F0120917C013091DF
:1004E0007D0142175307B4F49091E8009570E1F351
:1004F0009091E80092FD19C08093F10080917E01F7
:1005000090917F0101968F739927892B19F48EEFB3
:100510008093E80080917E0190917F0101969093F5
:100520007F0180937E0181E0089580E00895EF923D
:10053000FF920F931F93CF93DF93F82E192FE62E80
:10054000042F81E0860F880F0E94690283E00E94D9
:100550006902CF2DD12FEC0EFD2EF11CCE15DF053B
:10056000B9F007FF13C0FE0184910E946902182FA1
:1005700080E00E946902812321968111EFCFDF91F3
:10058000CF911F910F91FF90EF9008958881EDCF4B
:1005900081E0F5CFDF92EF92FF920F931F93CF93FD
:1005A000DF93D82E8A01EB017B01E40EF51ECE15F8
:1005B000DF0559F0D7FE12C0FE0184910E94690246
:1005C00021968111F4CF0FEF1FEFC801DF91CF917A
:1005D0001F910F91FF90EF90DF9008958881EECFEB
:1005E0000F931F93CF93DF931F92CDB7DEB782E0B7
:1005F000898342E450E069ED70E080E80E94CA021D
:100600000E94D401DC0112960D911C910115110577
:1006100089F0D801ED91FC910280F381E02DBE01BB
:100620006F5F7F4FC801099597FD04C0F8010085F1
:100630001185ECCF89810F90DF91CF911F910F91A0
:100640000895615030F02091F100FC012083019663
:10065000F8CF289A84E6809390010895282F30E0FF
:10066000F901E654FF4F9491F901E55BFE4F849147
:1006700028583E4FF9012491222309F430C09923D0
:10068000E9F091509F30D0F4E92FF0E0E65BFC4FA9
:100690000C947A0E78037C035903700374035E0391
:1006A0005E035E037F03850389038D0393035E036B
:1006B0009703909180009F7790938000E22FF0E065
:1006C000EE0FFF1FE659FE4FA591B4919FB7F89426
:1006D000EC91611132C080958E238C939FBF089559
:1006E000909180009F7DE8CF90918000977FE4CF2C
:1006F00094B59F7794BDE2CF94B59F7DFBCF909149
:1007000090009F7790939000D9CF909190009F7D1B
:10071000F9CF90919000977FF5CF9091C0009F778F
:100720009093C000CBCF9091C0009F7DF9CF909166
:10073000C200977F9093C200C1CF8E2BCECFCF93B4
:10074000DF9390E0FC01E55BFE4F249188589E4FBB
:10075000FC0184918823D1F090E0880F991FFC015F
:10076000E455FF4FA591B491FC01E659FE4FC591A8
:10077000D491623071F49FB7F8943C91822F8095A8
:1007800083238C93E8812E2B28839FBFDF91CF9109
:1007900008958FB7F894EC912E2B2C938FBFF6CF42
:1007A000CF93EFE9F1E0AFEF90E0208187FF05C044
:1007B00027FF47C0AF3F41F406C0821709F441C08C
:1007C000AF3F11F427FDA92F9F5F3996943169F748
:1007D00087FD3AC0AF3F09F437C0C82F89E0A802AF
:1007E000D0011124A156BE4FCC9320919E011196A9
:1007F0002C9311978C2F0C2E000C990BFC01E858B0
:10080000FE4FE491F0E0EE0FFF1FE659FE4F4591D9
:10081000549113965C934E931297FC01E55BFE4F47
:10082000E4911496EC93149715966C9360E0211163
:1008300061E08C2F0E942E0361E08C2FCF910C94ED
:100840009F03658387FDBCCFCF910895CF93C82FB9
:1008500060E00E94D003EFE9F1E090E080E02081C9
:10086000C2130DC029E0289FF001299FF00D11242B
:10087000E156FE4F84E187838087CF9108950196EA
:1008800039968431910559F7F8CF3FB7F8948091A4
:100890004E0190914F01A0915001B091510126B5A8
:1008A000A89B05C02F3F19F00196A11DB11D3FBFA8
:1008B000BA2FA92F982F8827BC01CD01620F711D77
:1008C000811D911D42E0660F771F881F991F4A9571
:1008D000D1F70895CF92DF92EF92FF920E944504E4
:1008E0006B017C010E9445046C197D098E099F09EA
:1008F000683E734081059105A8F3FF90EF90DF906B
:10090000CF9008958F929F92AF92BF92CF92DF9235
:10091000EF92FF920F931F93CF93DF936C017B01B4
:100920008A0180911401882309F458C080919101B3
:10093000882309F453C08091830180FF05C0809112
:10094000E00082608093E000E801B12C8AEFA82EDD
:1009500093E0892E2AE3922E209711F4BB20B9F15F
:100960000E94C301811106C0AA94AA20B9F10E9475
:100970006A04F2CF8C171D0611F00CF08C2F9FB774
:10098000F8948092E9002091E80025FD02C09FBF05
:10099000E3CF282F30E0C21BD30BF701815020F0AA
:1009A00041914093F100FACFE20EF31EBB2021F0FB
:1009B0009092E800B12CEBCF8091E80085FDE7CF65
:1009C0009092E800BB24B394209709F3F3CF5D9A8B
:1009D00084E680938201101611063CF081E090E0DD
:1009E000F6019383828310E000E0C801DF91CF918C
:1009F0001F910F91FF90EF90DF90CF90BF90AF903D
:100A00009F908F9008952FB7F89460914A0170914C
:100A10004B0180914C0190914D012FBF0895CF92D1
:100A2000DF92EF92FF92C0909601D0909701E090F4
:100A30009801F0909901C114D104E104F10459F531
:100A40000E9403056093960170939701809398012B
:100A5000909399010E940305C0909601D090970150
:100A6000E0909801F09099016C197D098E099F0919
:100A700028EE33E040E050E00E943D0E21E0643F6C
:100A800071408105910508F020E0822FFF90EF90E2
:100A9000DF90CF9008950E9403056C157D058E05AB
:100AA0009F0570F2D7CFCF93DF93CDB7DEB72897EE
:100AB0000FB6F894DEBF0FBECDBF0E944504698318
:100AC0007A838B839C8389819A81AB81BC8140919D
:100AD0005601509157016091580170915901841B42
:100AE000950BA60BB70B8D839E83AF83B8878D8143
:100AF0009E81AF81B8858D3B9240A105B105D8F0AC
:100B00008D819E81AF81B88588399840A105B10556
:100B100090F48D819E81AF81B8859093550180932B
:100B200054010E94030560935A0170935B01809306
:100B30005C0190935D0189819A81AB81BC81809336
:100B4000560190935701A0935801B09359012896EC
:100B50000FB6F894DEBF0FBECDBFDF91CF910895E1
:100B6000CF93DF93CDB7DEB728970FB6F894DEBFEB
:100B70000FBECDBF0E94450469837A838B839C831B
:100B800089819A81AB81BC81409160015091610162
:100B90006091620170916301841B950BA60BB70BEA
:100BA0008D839E83AF83B8878D819E81AF81B88509
:100BB0008D3B9240A105B105D8F08D819E81AF811A
:100BC000B88588399840A105B10590F48D819E8142
:100BD000AF81B88590935F0180935E010E94030509
:100BE000609364017093650180936601909367013F
:100BF00089819A81AB81BC8180936001909361016E
:100C0000A0936201B093630128960FB6F894DEBFFB
:100C10000FBECDBFDF91CF910895089560E00C9491
:100C2000D003662319F0642F0C94D0030C940E06A5
:100C30001F920F920FB60F9211248F939F93809162
:100C4000E1009091E100937F9093E10083FF0FC05A
:100C50001092E90091E09093EB001092EC0092E387
:100C60009093ED001092910198E09093F00082FF34
:100C700022C093E09093E9009091F200992319F03B
:100C80009AE39093E80090918201992341F090912A
:100C90008201915090938201911101C05D989091D1
:100CA0009001992341F0909190019150909390017F
:100CB000911101C0289884FF18C08091E2008E7EB7
:100CC00081608093E2008091E1008F7E8093E1005B
:100CD000809183018E7E8061809383019F918F91AB
:100CE0000F900FBE0F901F90189580FFF7CF809147
:100CF000E2008E7E80618093E2008091E1008E7E32
:100D00008093E100809183018E7E8160E5CF1F9208
:100D10000F920FB60F921124CF92DF92EF92FF92B3
:100D20000F931F932F933F934F935F936F937F93F3
:100D30008F939F93AF93BF93EF93FF93CF93DF93E3
:100D4000CDB7DEB76C97DEBFCDBF1092E9008091C2
:100D5000E80083FF25C068E0CE0145960E9421038C
:100D600082EF8093E8008D8987FF39C09091E80079
:100D700090FFFCCF982F907609F034C19E894F895F
:100D8000588D2F89F88C911131C0803861F5809190
:100D900081018093F1001092F1008EEF8093E800C2
:100DA0006C960FB6F894DEBF0FBECDBFDF91CF912A
:100DB000FF91EF91BF91AF919F918F917F916F9133
:100DC0005F914F913F912F911F910F91FF90EF9065
:100DD000DF90CF900F900FBE0F901F9018959EEF51
:100DE0009093E800C7CF1092F100D5CF913059F41D
:100DF0008111D3CF4130510581F6809181018D7FE2
:100E000080938101CACF933049F48111C6CF41301C
:100E1000510519F6809181018260F2CF953041F43D
:100E20008091E80080FFFCCF20682093E300B5CFDD
:100E3000963009F0A9C00B8D1C8D22E01092E900BC
:100E400010927F0110927E01F2122EC010927D014D
:100E500010927C010E94F0021F8299E09983FA822D
:100E600091E09E8390EA98879AEF998720917E017E
:100E700030917F01275F3F4F3C832B838D831092FE
:100E8000E90010927F0110927E0110937D01009382
:100E90007C0149E050E0BE016F5F7F4F80E00E941F
:100EA000CA020E94F00279CF10937D0100937C0169
:100EB0000E94D401DC0112960D911C9101151105BF
:100EC00009F451C1D801ED91FC910480F581E02D28
:100ED000BE016B5E7F4FC8010995009709F03EC1C6
:100EE000F80100851185EACFF3E0FF120EC08F896B
:100EF000882309F440C0823061F440E86DE08DE35E
:100F000091E00E949702811148CF81E28093EB002B
:100F100047CF813029F440E86BE081E391E0F1CFE5
:100F2000833099F70E94D401DC011296ED90FC9079
:100F30008E010F5F1F4F6801E114F10479F0D701B2
:100F4000ED91FC910680F781E02DB801C70109956C
:100F5000080F111DF701E084F184EECFD8011C9237
:100F6000F60101900020E9F73197BF016C197D0966
:100F700040E0C601C6CF6BE171E0FB01449150E057
:100F800080E80E94CA0209CF973009F4BECF98309A
:100F900021F481E08093F10000CF993009F0FDCE7B
:100FA000837009F0B2CFE1E2F1E081E031E096E355
:100FB0002191222371F08093E9003093EB00DF014F
:100FC00011972C912093EC009093ED008F5F873068
:100FD00079F78EE78093EA001092EA008F89809378
:100FE0009101DBCE8B8D9C8D1092E90010927F01D8
:100FF00010927E0190937D0180937C01898D8111F7
:1010000092C08E899D89913A49F4813209F07DCF51
:1010100047E050E06DE071E080E0B3CF913209F03D
:1010200074CF833269F48F89988DB0E0A0E080930B
:10103000090190930A01A0930B01B0930C01ADCE6E
:10104000803269F48091E80082FFFCCF67E08DE098
:1010500091E00E9421038BEF8093E8009ECE8232C4
:1010600009F09BCE8F8980931401EEEFFFE7859105
:1010700094918B3F9C4D51F1E0E0F8E080910D019F
:1010800090910E01A0910F01B0911001803B94400E
:10109000A105B105F1F48091140180FD1AC0EE3F65
:1010A0008AE0F80789F587E797E791838083809145
:1010B00060008093800188E19BE00FB6F894A895CA
:1010C000809360000FBE9093600067CEEEEFFAE071
:1010D000D5CF808191818737974709F05ECEA8955B
:1010E000809160008861809360008091800180938E
:1010F0006000EE3F2AE0F20789F08091FE0A9091AD
:10110000FF0A9183808349CE808191818737980738
:1011100051F29093FF0A8093FE0AC5CF1092FF0A06
:101120001092FE0A3ACE0E94D401DC0112960D9173
:101130001C910115110509F4E8CED801ED91FC913F
:101140000190F081E02DBE016B5E7F4FC8010995D3
:10115000811123CEF80100851185EBCF18161906F1
:101160000CF41BCED2CEF1E0FF12BECE6FE171E0E7
:1011700004CF1F920F920FB60F9211242F933F931B
:101180008F939F93AF93BF9380914A0190914B01AE
:10119000A0914C01B0914D013091490123E0230F02
:1011A0002D3758F50196A11DB11D2093490180935B
:1011B0004A0190934B01A0934C01B0934D01809153
:1011C0004E0190914F01A0915001B09151010196B3
:1011D000A11DB11D80934E0190934F01A09350012A
:1011E000B0935101BF91AF919F918F913F912F91FA
:1011F0000F900FBE0F901F90189526E8230F0296B0
:10120000A11DB11DD2CF1F920F920FB60F921124C4
:101210002F933F934F935F936F937F938F939F93FE
:10122000AF93BF93EF93FF93E0911E01F0911F01E5
:101230000995FF91EF91BF91AF919F918F917F9110
:101240006F915F914F913F912F910F900FBE0F9033
:101250001F9018951F920F920FB60F9211242F9383
:101260003F934F935F936F937F938F939F93AF932E
:10127000BF93EF93FF93E0911C01F0911D0109953D
:10128000FF91EF91BF91AF919F918F917F916F915E
:101290005F914F913F912F910F900FBE0F901F9034
:1012A00018951F920F920FB60F9211242F933F9310
:1012B0004F935F936F937F938F939F93AF93BF935E
:1012C000EF93FF93E0911A01F0911B010995FF91B3
:1012D000EF91BF91AF919F918F917F916F915F91AE
:1012E0004F913F912F910F900FBE0F901F90189527
:1012F0001F920F920FB60F9211242F933F934F938B
:101300005F936F937F938F939F93AF93BF93EF936D
:10131000FF93E0911801F09119010995FF91EF9168
:10132000BF91AF919F918F917F916F915F914F91FD
:101330003F912F910F900FBE0F901F9018951F9205
:101340000F920FB60F9211242F933F934F935F93F9
:101350006F937F938F939F93AF93BF93EF93FF937D
:10136000E0911601F09117010995FF91EF91BF915E
:10137000AF919F918F917F916F915F914F913F912D
:101380002F910F900FBE0F901F9018951F920F92E4
:101390000FB60F9211242F933F934F936F937F9328
:1013A0008F939F93AF93BF93EF93FF93809115011A
:1013B0008F5F80931501811138C0EFE9F1E047811B
:1013C0008581411103C090859923E9F090E0368131
:1013D000232F30E0BC01621B730B161617064CF46A
:1013E000442389F0240F311D2817390764F4C901FB
:1013F0000AC0672B41F04085442329F0241B3109A2
:1014000082179307A4F386838681882349F091810C
:10141000A281B3818481911131C09C91892B8C93DD
:10142000399682E0E335F80751F6EFE9F1E0808183
:1014300087FD0FC080911501968198130AC0A28183
:10144000B3818481918191111DC09C9180958923E4
:101450008C93399682E0E335F80749F7FF91EF91D5
:10146000BF91AF919F918F917F916F914F913F91DC
:101470002F910F900FBE0F901F9018959C91809503
:101480008923CDCF9C91892BE3CF1F920F920FB66A
:101490000F9211242F933F934F935F936F937F93FA
:1014A0008F939F93AF93BF93CF93DF93EF93FF936C
:1014B00080914801C091C702D0E087FF24C01092FC
:1014C000850010928400809148018F5F80934801CD
:1014D00080914801082E000C990B8C179D0724F46D
:1014E000809148018C30C4F18091840090918500F6
:1014F000049680349C4908F47AC0809184009091CD
:101500008500049676C080914801082E000C990B46
:101510008C179D07C4F6E09148018E2FEE0F990BB2
:10152000FC01EE0FFF1FE80FF91FED55FD4F808105
:1015300086FFC9CFE09148018E2FEE0F990BFC0179
:10154000EE0FFF1FE80FF91FED55FD4F808160E0A2
:101550008F730E942E03B7CF2091840030918500B5
:10156000E09148018E2FEE0F990BFC01EE0FFF1F4B
:10157000E80FF91FED55FD4F81819281820F931F76
:101580009093890080938800E09148018E2FEE0FA0
:10159000990BFC01EE0FFF1FE80FF91FED55FD4FF2
:1015A000808186FF11C0E09148018E2FEE0F990BCC
:1015B000FC01EE0FFF1FE80FF91FED55FD4F808175
:1015C00061E08F730E942E03FF91EF91DF91CF9125
:1015D000BF91AF919F918F917F916F915F914F914B
:1015E0003F912F910F900FBE0F901F90189580E4A0
:1015F0009CE990938900809388008FEF8093480145
:10160000E3CF109256021092550288EE93E0A0E0CC
:10161000B0E08093570290935802A0935902B09380
:101620005A028BE291E090935402809353028FEF21
:101630009FEF9093600280935F028091C7028C308D
:1016400098F491E0980F9093C7028093C80290E0BD
:10165000FC01EE0FFF1FE80FF91FED55FD4F88EB62
:101660009BE09283818308958FEF8093C802089551
:10167000789484B5826084BD84B5816084BD85B56D
:10168000826085BD85B5816085BD80916E00816079
:1016900080936E001092810080918100826080931F
:1016A0008100809181008160809381008091800021
:1016B000816080938000809191008260809391008E
:1016C0008091910081608093910080919000816071
:1016D000809390008091C10084608093C1008091CC
:1016E000C10082608093C1008091C10081608093BD
:1016F000C1008091C30081608093C3008091C000CD
:1017000082608093C0008091C20081608093C2009B
:1017100080917A00846080937A0080917A00826060
:1017200080937A0080917A00816080937A00809122
:101730007A00806880937A00109291011092810162
:10174000109283018091D70081608093D70080EA56
:101750008093D80089B5806189BD89B5826089BDD3
:1017600009B400FEFDCF0E946A048091D8008F7CEE
:1017700080618093D8008091E000807F8093E000BA
:101780008091E1008E7E8093E1008DE08093E20005
:10179000559A209A5D98289862E080E00E949F0305
:1017A00062E081E00E949F031092C00084E0809379
:1017B000C1001092C2001092C3001092C400109297
:1017C000D10082E88093D10080E480937200EFE939
:1017D000F1E083E592E02FEF2083118213821282E1
:1017E0001782108639968E179F07B1F710929E01C7
:1017F00085E00E94260486E00E9426048BE00E9479
:10180000260489E00E94260487E00E94260488E0DE
:101810000E94260489E00E94260461E083E00E9481
:101820009F038091C8028C3008F051C061E083E0D2
:101830000E949F038091C802282F30E0F901EE0F2B
:10184000FF1FE20FF31FED55FD4F9081907C9360D9
:1018500090831092C9021092CA022CE0622F0E945B
:101860006E0E829FB001112430E020E0AB01420FE8
:10187000531FFA01EE0FFF1FE40FF51FED55FD4F4B
:10188000908196FD16C02F5F3F4F2C30310571F7C8
:1018900081110FC01092800082E08093810010922D
:1018A000850010928400B19A80916F0082608093CD
:1018B0006F00E091C8028E2F90E0FC01EE0FFF1F39
:1018C000E80FF91FED55FD4F8081806480838AE524
:1018D00090E00E94340163E575E082E00E94F70029
:1018E00060EB75E083E00E94F700D1E000E010E0DB
:1018F00084E0982EC1E0EE24E394F12C23E0C22E84
:10190000D12C0E94030540905A0150905B016090D9
:101910005C0170905D016419750986099709683842
:1019200073418105910520F48091540190915501F6
:1019300080915201811110925201809153018111C5
:101940001092530180910601853010F090920601AB
:1019500080910601811102C0C0930601A09006018A
:10196000B12C0E9403054090640150906501609085
:1019700066017090670164197509860997096838CE
:10198000734181059105C0F580915E0190915F01E1
:101990009C012E5E3240253F314060F1873D26E0BC
:1019A000920750F18B3C984048F180E0F501E958EE
:1019B000FE4F808380917B01B12C833089F5B090FC
:1019C0007601B1102DC08091740190917501992319
:1019D000D1F08823A9F0109275011092740185E06E
:1019E0000E940E068BE00E940E06C0937601B09214
:1019F000730126C081E0DACF82E0D8CF83E0D6CF72
:101A0000C0937401F2CF8111F0CFC093750164E6E9
:101A100085E00E94D00364E68BE00E94D003E5CF0E
:101A2000B0927601B12C813011F7B0907301B110F2
:101A3000DECF909172019827909372018093730189
:101A400080917201811131C080917401811128C08F
:101A500086E00E940E06A0907A0183E0A81227C0BB
:101A600080917101811124C0809170018D27809334
:101A70007001C09371019091790180E09330D9F4A5
:101A800080916F01811117C090916E019D279093F5
:101A90006E0110926D01C0936F0180936C011DC0A7
:101AA00064E686E00E94D003D6CF6FEFFACF80E0E5
:101AB00080937101E0CF80936F0180E0913069F7EE
:101AC00080916C018111E9CF80916D01892780930C
:101AD0006D0110926E0190936C01B0907001BB206B
:101AE00041F00E940F0561E0811101C060E0B62E57
:101AF0000AC080916E018823E1F10E940F0561E028
:101B0000811101C060E04FEF87E00E9411064FEFA6
:101B10006B2D88E00E94110621E080E0A2123EC0F9
:101B200080916B0181113AC060916A016A256093CE
:101B30006A014FEF89E00E941106A0926B0130917B
:101B40007801809107019091080120E0313071F512
:101B50002091690121112AC00196843091050CF56C
:101B60009093080180930701C09369012093680155
:101B700030C060916D01662341F00E940F05BB24C7
:101B8000B3948111BFCFB12CBDCF109296011092AA
:101B900097011092980110929901A9CF80936B013F
:101BA000CECFD0920801C0920701DECF2093690109
:101BB00020E03330D9F6209168012111D7CF019769
:101BC00018161906ECF49093080180930701C0934E
:101BD0006801809107019091080182309105A9F078
:101BE00083309105A9F0019721F490E080E00E94F4
:101BF00034010115110509F484CE0E94000081CE44
:101C0000F0920801E0920701E2CF8AE590E0EFCF81
:101C100084EB90E0ECCF052E97FB1EF400940E941D
:101C2000220E57FD07D00E943D0E07FC03D04EF454
:101C30000C94220E50954095309521953F4F4F4F73
:101C40005F4F089590958095709561957F4F8F4F68
:101C50009F4F08950E945F0EA59F900DB49F900D19
:101C6000A49F800D911D11240895B7FF0C942A0E96
:101C70000E942A0E821B930B0895A1E21A2EAA1B22
:101C8000BB1BFD010DC0AA1FBB1FEE1FFF1FA2172C
:101C9000B307E407F50720F0A21BB30BE40BF50B29
:101CA000661F771F881F991F1A9469F760957095B2
:101CB000809590959B01AC01BD01CF010895A29F35
:101CC000B001B39FC001A39F700D811D1124911D10
:101CD000B29F700D811D1124911D0895991B79E00B
:101CE00004C0991F961708F0961B881F7A95C9F7AC
:101CF00080950895EE0FFF1F0590F491E02D099453
:041D0000F894FFCF85
:101D0400AA05AA050100010200FFFFFFFF00E10090
:101D14000000000000FF0D060D060D060D060D0661
:101D240000C1808100000000000000E80182040975
:0A1D340002FE014F020D022B020017
:00000001FF
